:0F0000000208D902000A8F5D222232020B2D3234
:0300130002000EDA
:03001B00020F0EC3
:030023000209EFE0
:10002B000206FCE709F608DFFA8046E709F208DF6B
:10003B00FA803E88828C83E709F0A3DFFA8032E3F3
:10004B0009F608DFFA8078E309F208DFFA80708896
:10005B00828C83E309F0A3DFFA806489828A83E0D0
:10006B00A3F608DFFA805889828A83E0A3F208DFBF
:10007B00FA804C80D280FA80C680D4806980F2806E
:10008B0033801080A680EA809A80A880DA80E28094
:10009B00CA803389828A83ECFAE493A3C8C582C8E9
:1000AB00CCC583CCF0A3C8C582C8CCC583CCDFE953
:1000BB00DEE7800D89828A83E493A3F608DFF9ECEF
:1000CB00FAA9F0EDFB2289828A83ECFAE0A3C8C57A
:1000DB0082C8CCC583CCF0A3C8C582C8CCC583CCA1
:1000EB00DFEADEE880DB89828A83E493A3F208DF10
:1000FB00F980CC88F0EF60010E4E60C388F0ED24E0
:10010B0002B4040050B9F582EB2402B4040050AFE2
:10011B00232345822390007E73BB010689828A8349
:10012B00E0225002E722BBFE02E32289828A83E4AB
:10013B009322BB010CE58229F582E5833AF583E036
:10014B00225006E92582F8E622BBFE06E92582F855
:10015B00E222E58229F582E5833AF583E49322BC1A
:10016B00000BBE0029EF8DF084FFADF022E4CCF83C
:10017B0075F008EF2FFFEE33FEEC33FCEE9DEC98A1
:10018B004005FCEE9DFE0FD5F0E9E4CEFD22EDF827
:10019B00F5F0EE8420D21CFEADF075F008EF2FFFCA
:1001AB00ED33FD4007985006D5F0F222C398FD0FB2
:1001BB00D5F0EA22E88FF0A4CC8BF0A42CFCE98ECE
:1001CB00F0A42CFC8AF0EDA42CFCEA8EF0A4CDA8B4
:1001DB00F08BF0A42DCC3825F0FDE98FF0A42CCDBD
:1001EB0035F0FCEB8EF0A4FEA9F0EB8FF0A4CFC59D
:1001FB00F02ECD39FEE43CFCEAA42DCE35F0FDE427
:10020B003CFC22D083D082F8E4937012740193707B
:10021B000DA3A393F8740193F5828883E47374029E
:10022B00936860EFA3A3A380DFD083D082F8E4931D
:10023B007012740193700DA3A393F8740193F5825C
:10024B008883E473740293B5F0067403936860E9D2
:10025B00A3A3A3A380D875F008758200EF2FFFEE40
:10026B0033FECD33CDCC33CCC58233C5829BED9AD7
:10027B00EC99E58298400CF582EE9BFEED9AFDEC35
:10028B0099FC0FD5F0D6E4CEFBE4CDFAE4CCF9A87B
:10029B008222B800C1B90059BA002DEC8BF084CF83
:1002AB00CECDFCE5F0CBF97818EF2FFFEE33FEED5A
:1002BB0033FDEC33FCEB33FB10D703994004EB9984
:1002CB00FB0FD8E5E4F9FA227818EF2FFFEE33FE97
:1002DB00ED33FDEC33FCC933C910D7059BE99A40CC
:1002EB0007EC9BFCE99AF90FD8E0E4C9FAE4CCFBE4
:1002FB002275F010EF2FFFEE33FEED33FDCC33CC38
:10030B00C833C810D7079BEC9AE899400AED9BFDC0
:10031B00EC9AFCE899F80FD5F0DAE4CDFBE4CCFAD3
:10032B00E4C8F9227BFF7A0F79A0C003C002C00199
:10033B007B007A007926A801AC02AD03D001D00274
:10034B00D0037E007F031200FE752900752A00D2B0
:10035B00B27F057E00120DBEC2B2755F1420B308CA
:10036B00E55F70F9800280F5755F14758C00758AF6
:10037B0000C28DD28C30B308E55F70F9800280F536
:10038B00C28C120DEA8E298F2A758C00758A00C2D9
:10039B008DAE29AF2AE4FCFD7BAA7A0079007800A8
:1003AB001201BF7B107A2779007800120C728E290C
:1003BB008F2AAE29AF2A7C007D6412016A7C007DF6
:1003CB000A12016AAF05900068EFF0AE29AF2A7CE4
:1003DB00007D0A12016A7C007D0A12016AAF05904A
:1003EB000069EFF0AE29AF2A7C007D0A12016AAFDB
:1003FB000590006AEFF0900068E0FFEF2430F526DF
:10040B00900069E0FFEF2430F52790006AE0FFEFE2
:10041B002430F52880187B007A0079267D037C0038
:10042B00120CF880097BFF7A0F799B120D907B00E1
:10043B007A0079267513017514037D0A120EADAE81
:10044B0029AF2A228E578F587F0E120D607F011213
:10045B0000067BFF7A0F79157525007D00120EB60D
:10046B00C203D202C201C200C205C204E5588557BD
:10047B00F01202340493000004EC0005050E002872
:10048B0004D20097000005447BFF7A0F791B75257A
:10049B00007D07120EB67BFF7A0F79217525017D42
:1004AB0000120EB67BFF7A0F792B7525017D0E128C
:1004BB000EB6756197754800754906900066E4F0B5
:1004CB00A374FFF0C2AC227BFF7A0F792E75250047
:1004DB007D07120EB6756105754800754906C2ACED
:1004EB00227BFF7A0F79377525007D07120EB675C3
:1004FB006128754800754904900064E4F0A3E4F0AA
:10050B00D2AC227BFF7A0F791B7525007D07120E6B
:10051B00B67BFF7A0F79217525017D00120EB67B14
:10052B00FF7A0F792B7525017D0E120EB67561972B
:10053B00754800754906C2AC227F011200067BFF8D
:10054B007A0F793E7525007D07120EB622752B00AA
:10055B007F19120D6080097BFF7A0F7944120D9081
:10056B0012032F8E2C8F2D7F587E02120CB67F0E0E
:10057B00120D607F587E02120CB67F06120D6012B0
:10058B00032F8E2E8F2F7F587E02120CB67F0E12EA
:10059B000D607F587E02120CB6754800754904C277
:1005AB0003C202E538701DC3E52D952FE52C952E62
:1005BB004009D201C2007538F08027C201D2007504
:1005CB00380F801EAF387E00EF64F04E7006D201FC
:1005DB00C200800EAF387E00EF640F4E7004C20174
:1005EB00D2007F2C7E01120CB6D20280097BFF7ADF
:1005FB000F7950120D9012032F8F2B30A40320A3D1
:10060B0016C203C202C201C2007F2C7E01120CB6BD
:10061B00D202752B018022AF2B7E00D3EF9414EE08
:10062B00648094804010D203C202C201C2007538AC
:10063B0000752B008003752B01754800754906E585
:10064B002B24FF2241006B000159000248000001DE
:10065B004700C106606400000000000000000000BD
:10066B00000000000000000000000000000000007F
:10067B00000000000000000000000000000000006F
:10068B00000000000000000000000000000000005F
:10069B00000000000000000000000000000000004F
:1006AB00000000000000000000000000000000003F
:1006BB000000000000000000000000004200640089
:1006CB000002530000015F0043006800000042007D
:1006DB0066000001390041006C0E023A000001383F
:1006EB0000C103C182C101C100016100C105C10488
:1006FB0000C0E0C0F0C083C082C0D075D000C00085
:10070B00C001C002C003C004C005C006C007E55F3E
:10071B006002155F20B52490006BE0FFEF701C05A5
:10072B0059AF597E00C3EF9414EE64809480400E51
:10073B0075590090006B7401F08003755900E554F6
:10074B0045536010E554155470021553E554455349
:10075B007002D206AF477E00D3EF9549EE95484025
:10076B0018120D2CAF477E00C3EF940AEE648094F1
:10077B00804006754700120EEC0547C2CFD007D05C
:10078B0006D005D004D003D002D001D000D0D0D0F9
:10079B0082D083D0F0D0E032753C007BFF7A0F79AA
:1007AB006FC003C002C0017B007A00793DA801AC89
:1007BB0002AD03D001D002D0037E007F031200FEF6
:1007CB0080097BFF7A0F795F120D9012032F900037
:1007DB0066EEF0A3EFF0900066E0FEA3E0FFC374BB
:1007EB00149FE49E500DD203C202C201C200753C9D
:1007FB00008028C203900066E0FEA3E0FFD3EF94D5
:10080B000FEE9400501030A20DC202C201C2007F45
:10081B00267E02120CB6D202753C0130A40320A333
:10082B001730A20FC203C202C201C2007F907E0129
:10083B00120CB6D202753C01E53C24FF228B508A88
:10084B00518952AB50AA51A952758203758300127C
:10085B00013DFF7E00C3740A9FF549E49EF548AB4A
:10086B0050AA51A95275820275830012013DFFEF08
:10087B0012020E089D0F08BB5508ACAA088EF0009B
:10088B000008CA754800754906D203C202C201C2EC
:10089B000022754800754906C203C202C201C2009C
:1008AB0022754800754905C203C202D201C200225B
:1008BB00754800754905C203C202C201D2002275F8
:1008CB004800754906C203D202C201C20022787FDA
:1008DB00E4F6D8FD758161020920020AC4E493A3F2
:1008EB00F8E493A34003F68001F208DFF48029E4D7
:1008FB0093A3F85407240CC8C333C4540F4420C823
:10090B00834004F456800146F6DFE4800B010204B9
:10091B00081020408090064FE47E019360BCA3FF3B
:10092B00543F30E509541FFEE493A360010ECF54EE
:10093B00C025E060A840B8E493A3FAE493A3F8E4DD
:10094B0093A3C8C582C8CAC583CAF0A3C8C582C849
:10095B00CAC583CADFE9DEE780BE2006030209EEC3
:10096B00900064E0FEA3E0FFEF64064E706B900016
:10097B0000E0FF7E00EF645A4E705E7B017A0079D7
:10098B0000120A5B5053900001E0FFEF12020E09B8
:10099B00AA0009D20509DB2809C997000009E475EB
:1009AB0061007BFF7A0F798F7525007D00120EB6E3
:1009BB007BFF7A0F79957525007D07120EB67F2880
:1009CB007E0012044F80127F977E0012044F800925
:1009DB007B017A007900120848900064E4F0A3E4EC
:1009EB00F0C20622C0E0C083C082C0D075D000C068
:1009FB0006C007755C0030984A120E868F5C200685
:100A0B0042900064E0FEA3E0FF74002FF5827400B7
:100A1B003EF583E55CF0900065E004F07006900015
:100A2B0064E004F0900064E0FEA3E0FFC3EF946485
:100A3B00EE94004008900064E4F0A3E4F0755300DA
:100A4B00755428D007D006D0D0D082D083D0E032D6
:100A5B008B158A168917751900751A00751801AF51
:100A6B00187E00C3EF9405EE648094805021AB1583
:100A7B00AA16A917AF188F8275830012013DFF7E4E
:100A8B0000EF251AF51AEE3519F519051880D0AFB8
:100A9B001AEFF4FF7E008E198F1AAB15AA16A91741
:100AAB00AF188F8275830012013DFF7E00EFB51AE0
:100ABB0006EEB51902D322C3227540007BFF7A0FD5
:100ACB00798CC003C002C0017B007A007941A80178
:100ADB00AC02AD03D001D002D0037E007F03120025
:100AEB00FE120BE27F0E120D60E56112020E0B0B74
:100AFB00050B10280B069700000B13120E508008E5
:100B0B00120B90800312096530B5DE90006BE0FF8D
:100B1B00EF60D6AF617E0012044F90006BE4F08063
:100B2B00C822C0E0C083C082C0D075D000C006C050
:100B3B0007758CFF758A9C053BE53B7002053A9067
:100B4B00006CE0FF7E00D3E53B9FE53A9E5004D25C
:100B5B00A08002C2A0D3E53B94C8E53A94004018AC
:100B6B001539E539700CC2A9C28C753A00753B007A
:100B7B008006753A00753B01D007D006D0D0D082E5
:100B8B00D083D0E03220B61620B7137548007549D4
:100B9B0006D203C202C201C200C205C2042230B691
:100BAB001220B70F754800754905C203C202C20176
:100BBB00D2002220B61230B70F754800754905C216
:100BCB0003C202D201C20022754800754906C20356
:100BDB00D202C201C20022C2AF120F07120E1112B3
:100BEB000E77120E32750B01750C007B007D007FAA
:100BFB0001120C2C120E947BFF7A0F797275250063
:100C0B007D00120EB67BFF7A0F79787525007D0774
:100C1B00120EB680097BFF7A0F797E120D90D2AF40
:100C2B00228F088D098B0A750D08750E04120EBFE5
:100C3B00E50925E0FFE50825E025E0FEEE4FFFE5A1
:100C4B000A4FFFEF420DE50B25E0FFEF450CFFEFE1
:100C5B00420E7F38120006AF0D120006AF0E1200C7
:100C6B00067F0112000622C2D5E830E70FB2D5E4A9
:100C7B00C39BFBE49AFAE499F9E498F8EC30E71794
:100C8B00B2D5120CA812029DE4C39BFBE49AFAE4C2
:100C9B0099F9E498F8800312029D30D50DE4C39FB7
:100CAB00FFE49EFEE49DFDE49CFC228E308F31E53B
:100CBB00311531AE3070021530FFEF4E602E7532AC
:100CCB0002AF327E00D3EF9400EE6480948040DF5D
:100CDB0075332BAF337E00D3EF9400EE648094809A
:100CEB004004153380ED153280D780C3228B1B8ACD
:100CFB001C891D8C1E8D1FE51F151FAE1E70021546
:100D0B001EFFEF4E601AAB1BAA1CA91D120124FF7C
:100D1B00120EA27401251DF51DE4351CF51C80D7A0
:100D2B0022300304120EC822300204120EEC2220D1
:100D3B000115200012300504120EF52230040412A6
:100D4B000EFE22120ED122300104120EDA223000D6
:100D5B0003120EE3228F60753905753A00753B015E
:100D6B0090006CE560F0C2A0C28D758CFF758A9CFB
:100D7B00D2A9D28CE53B453A70FA758C00758A0086
:100D8B00C28DD2A0228B4A8A4B894CAB4AAA4BA963
:100D9B004C120124FFEF601AAB4AAA4BA94C12016B
:100DAB0024FF120EA27401254CF54CE4354BF54B88
:100DBB0080D9228E448F45E5451545AE447002150A
:100DCB0044FFEF4E6018754602AF467E00D3EF949A
:100DDB0000EE6480948040DF154680ED80D922754B
:100DEB003400753500858C37858A36AF367E008E9C
:100DFB00348F35AF377E00EF7F00FEEF4235EE428A
:100E0B0034AE34AF352253890F438920C29FD29E13
:100E1B00D29C438780758BF3858B8DC2AB43B71008
:100E2B00D2BCD2ACD28E22C2CDC2CCC2C8C2C97582
:100E3B00CDFC75CC1875CBFC75CA1853B7DFD2BD7A
:100E4B00D2ADD2CA221207A35010120558500B90E4
:100E5B00006BE0FFEF60F32280F022C290C291C2E0
:100E6B0092C293D294D295D296D29722438901758E
:100E7B008C00758A0043B702C2B922755B003098AB
:100E8B00FD85995BC298AF5B22C203D20275480005
:100E9B00754906756100228F5A855A993099FDC2A2
:100EAB0099228B0F8A1089118D12228B218A22890C
:100EBB00238D2422C290C291C292C29322D294C299
:100ECB0095D296C29722C294D295C296D29722D22D
:100EDB0094C295C296D29722C294D295D296C297BB
:100EEB0022D294D295D296D29722D294C295D296F0
:100EFB00D29722D294D295D296C29722120009127F
:100F0B000E6622758DFF758B9C324D6F64653A00B2
:100F1B0041766F69640044697374616E63653A006E
:100F2B00636D00547261636B696E670052656D6F20
:100F3B007465004572726F72003E3E3E3E3E206C01
:100F4B006566743A003E3E3E3E3E204375727265C6
:100F5B006E743A003E3E3E3E3E2044697374616EB1
:100F6B0063653A000000004D6F64653A00456D7093
:100F7B0074790057656C636F6D65206D61696E0ADE
:100F8B00000000004D6F64653A00456D7074790088
:080F9B00636D0D0A0000000067
:00000001FF
