:0F0000000208D902000A8F5D222232020B2D3234
:0300130002000EDA
:03001B00020F03CE
:030023000209EFE0
:10002B000206FCE709F608DFFA8046E709F208DF6B
:10003B00FA803E88828C83E709F0A3DFFA8032E3F3
:10004B0009F608DFFA8078E309F208DFFA80708896
:10005B00828C83E309F0A3DFFA806489828A83E0D0
:10006B00A3F608DFFA805889828A83E0A3F208DFBF
:10007B00FA804C80D280FA80C680D4806980F2806E
:10008B0033801080A680EA809A80A880DA80E28094
:10009B00CA803389828A83ECFAE493A3C8C582C8E9
:1000AB00CCC583CCF0A3C8C582C8CCC583CCDFE953
:1000BB00DEE7800D89828A83E493A3F608DFF9ECEF
:1000CB00FAA9F0EDFB2289828A83ECFAE0A3C8C57A
:1000DB0082C8CCC583CCF0A3C8C582C8CCC583CCA1
:1000EB00DFEADEE880DB89828A83E493A3F208DF10
:1000FB00F980CC88F0EF60010E4E60C388F0ED24E0
:10010B0002B4040050B9F582EB2402B4040050AFE2
:10011B00232345822390007E73BB010689828A8349
:10012B00E0225002E722BBFE02E32289828A83E4AB
:10013B009322BB010CE58229F582E5833AF583E036
:10014B00225006E92582F8E622BBFE06E92582F855
:10015B00E222E58229F582E5833AF583E49322BC1A
:10016B00000BBE0029EF8DF084FFADF022E4CCF83C
:10017B0075F008EF2FFFEE33FEEC33FCEE9DEC98A1
:10018B004005FCEE9DFE0FD5F0E9E4CEFD22EDF827
:10019B00F5F0EE8420D21CFEADF075F008EF2FFFCA
:1001AB00ED33FD4007985006D5F0F222C398FD0FB2
:1001BB00D5F0EA22E88FF0A4CC8BF0A42CFCE98ECE
:1001CB00F0A42CFC8AF0EDA42CFCEA8EF0A4CDA8B4
:1001DB00F08BF0A42DCC3825F0FDE98FF0A42CCDBD
:1001EB0035F0FCEB8EF0A4FEA9F0EB8FF0A4CFC59D
:1001FB00F02ECD39FEE43CFCEAA42DCE35F0FDE427
:10020B003CFC22D083D082F8E4937012740193707B
:10021B000DA3A393F8740193F5828883E47374029E
:10022B00936860EFA3A3A380DFD083D082F8E4931D
:10023B007012740193700DA3A393F8740193F5825C
:10024B008883E473740293B5F0067403936860E9D2
:10025B00A3A3A3A380D875F008758200EF2FFFEE40
:10026B0033FECD33CDCC33CCC58233C5829BED9AD7
:10027B00EC99E58298400CF582EE9BFEED9AFDEC35
:10028B0099FC0FD5F0D6E4CEFBE4CDFAE4CCF9A87B
:10029B008222B800C1B90059BA002DEC8BF084CF83
:1002AB00CECDFCE5F0CBF97818EF2FFFEE33FEED5A
:1002BB0033FDEC33FCEB33FB10D703994004EB9984
:1002CB00FB0FD8E5E4F9FA227818EF2FFFEE33FE97
:1002DB00ED33FDEC33FCC933C910D7059BE99A40CC
:1002EB0007EC9BFCE99AF90FD8E0E4C9FAE4CCFBE4
:1002FB002275F010EF2FFFEE33FEED33FDCC33CC38
:10030B00C833C810D7079BEC9AE899400AED9BFDC0
:10031B00EC9AFCE899F80FD5F0DAE4CDFBE4CCFAD3
:10032B00E4C8F9227BFF7A0F7987C003C002C001B2
:10033B007B007A007926A801AC02AD03D001D00274
:10034B00D0037E007F031200FE752900752A00D2B0
:10035B00B27F057E00120DB3C2B2755F1420B308D5
:10036B00E55F70F9800280F5755F14758C00758AF6
:10037B0000C28DD28C30B308E55F70F9800280F536
:10038B00C28C120DDF8E298F2A758C00758A00C2E4
:10039B008DAE29AF2AE4FCFD7BAA7A0079007800A8
:1003AB001201BF7B107A2779007800120C288E2956
:1003BB008F2AAE29AF2A7C007D6412016A7C007DF6
:1003CB000A12016AAF05900068EFF0AE29AF2A7CE4
:1003DB00007D0A12016A7C007D0A12016AAF05904A
:1003EB000069EFF0AE29AF2A7C007D0A12016AAFDB
:1003FB000590006AEFF0900068E0FFEF2430F526DF
:10040B00900069E0FFEF2430F52790006AE0FFEFE2
:10041B002430F52880187B007A0079267D037C0038
:10042B00120CED80097BFF7A0F7982120D857B0010
:10043B007A0079267513017514037D0A120EA2AE8C
:10044B0029AF2A228E578F587F0E120D557F01121E
:10045B0000067BFF7A0F790A7525007D00120EAB23
:10046B00C203D202C201C200C205C204E5588557BD
:10047B00F01202340493000004EC0005050E002872
:10048B0004D20097000005447BFF7A0F7910752585
:10049B00007D07120EAB7BFF7A0F79167525017D58
:1004AB0000120EAB7BFF7A0F79207525017D0E12A2
:1004BB000EAB756097754800754906900066E4F0C1
:1004CB00A374FFF0C2AC227BFF7A0F792375250052
:1004DB007D07120EAB756005754800754906C2ACF9
:1004EB00227BFF7A0F792C7525007D07120EAB75D9
:1004FB006028754800754904900064E4F0A3E4F0AB
:10050B00D2AC227BFF7A0F79107525007D07120E76
:10051B00AB7BFF7A0F79167525017D00120EAB7B35
:10052B00FF7A0F79207525017D0E120EAB75609742
:10053B00754800754906C2AC227F011200067BFF8D
:10054B007A0F79337525007D07120EAB22752B00C0
:10055B007F19120D5580097BFF7A0F7939120D85A2
:10056B0012032F8E2C8F2D7F587E02120C6C7F0E58
:10057B00120D557F587E02120C6C7F06120D551210
:10058B00032F8E2E8F2F7F587E02120C6C7F0E1234
:10059B000D557F587E02120C6C754800754904C2CC
:1005AB0003C202E538701DC3E52D952FE52C952E62
:1005BB004009D201C2007538F08027C201D2007504
:1005CB00380F801EAF387E00EF64F04E7006D201FC
:1005DB00C200800EAF387E00EF640F4E7004C20174
:1005EB00D2007F2C7E01120C6CD20280097BFF7A29
:1005FB000F7945120D8512032F8F2B30A40320A3E7
:10060B0016C203C202C201C2007F2C7E01120C6C07
:10061B00D202752B018022AF2B7E00D3EF9414EE08
:10062B00648094804010D203C202C201C2007538AC
:10063B0000752B008003752B01754800754906E585
:10064B002B24FF2241006B000159000248000001DE
:10065B004700C106606400000000000000000000BD
:10066B00000000000000000000000000000000007F
:10067B00000000000000000000000000000000006F
:10068B00000000000000000000000000000000005F
:10069B00000000000000000000000000000000004F
:1006AB00000000000000000000000000000000003F
:1006BB000000000000000000000000004200640089
:1006CB000002530000015F0043006800000042007D
:1006DB00660000C103C182C101C100016000013984
:1006EB000041006C0E023A0000013800C105C10444
:1006FB0000C0E0C0F0C083C082C0D075D000C00085
:10070B00C001C002C003C004C005C006C007E55F3E
:10071B006002155F20B52490006BE0FFEF701C05A5
:10072B0059AF597E00C3EF9414EE64809480400E51
:10073B0075590090006B7401F08003755900E554F6
:10074B0045536010E554155470021553E554455349
:10075B007002D206AF477E00D3EF9549EE95484025
:10076B0018120D21AF477E00C3EF940AEE648094FC
:10077B00804006754700120EE10547C2CFD007D067
:10078B0006D005D004D003D002D001D000D0D0D0F9
:10079B0082D083D0F0D0E032753C007BFF7A0F79AA
:1007AB0064C003C002C0017B007A00793DA801AC94
:1007BB0002AD03D001D002D0037E007F031200FEF6
:1007CB0080097BFF7A0F7954120D8512032F90004D
:1007DB0066EEF0A3EFF0900066E0FEA3E0FFC374BB
:1007EB00149FE49E500DD203C202C201C200753C9D
:1007FB00008028C203900066E0FEA3E0FFD3EF94D5
:10080B000FEE9400501030A20DC202C201C2007F45
:10081B00267E02120C6CD202753C0130A40320A37D
:10082B001730A20FC203C202C201C2007F907E0129
:10083B00120C6CD202753C01E53C24FF228B508AD2
:10084B00518952AB50AA51A952758203758300127C
:10085B00013DFF7E00C3740A9FF549E49EF548AB4A
:10086B0050AA51A95275820275830012013DFFEF08
:10087B0012020E089D0F08BB5508ACAA088EF0009B
:10088B000008CA754800754906D203C202C201C2EC
:10089B000022754800754906C203C202C201C2009C
:1008AB0022754800754905C203C202D201C200225B
:1008BB00754800754905C203C202C201D2002275F8
:1008CB004800754906C203D202C201C20022787FDA
:1008DB00E4F6D8FD758161020920020AC4E493A3F2
:1008EB00F8E493A34003F68001F208DFF48029E4D7
:1008FB0093A3F85407240CC8C333C4540F4420C823
:10090B00834004F456800146F6DFE4800B010204B9
:10091B00081020408090064FE47E019360BCA3FF3B
:10092B00543F30E509541FFEE493A360010ECF54EE
:10093B00C025E060A840B8E493A3FAE493A3F8E4DD
:10094B0093A3C8C582C8CAC583CAF0A3C8C582C849
:10095B00CAC583CADFE9DEE780BE2006030209EEC3
:10096B00900064E0FEA3E0FFEF64064E707390000E
:10097B0000E0FF7E00EF645A4E70667B017A0079CF
:10098B0000120A5B5053900001E0FFEF12020E09B8
:10099B00AA0009D20509DB2809C997000009E475EB
:1009AB0060007BFF7A0F79767525007D00120EAB08
:1009BB007BFF7A0F797C7525007D07120EAB7F28A4
:1009CB007E0012044F80127F977E0012044F800925
:1009DB007B017A007900120848900064E4F0A3E4EC
:1009EB00F0C20622C0E0C083C082C0D075D000C068
:1009FB0006C007755C0030984A120E7B8F5C200690
:100A0B0042900064E0FEA3E0FF74002FF5827400B7
:100A1B003EF583E55CF0900065E004F07006900015
:100A2B0064E004F0900064E0FEA3E0FFC3EF946485
:100A3B00EE94004008900064E4F0A3E4F0755300DA
:100A4B00755428D007D006D0D0D082D083D0E032D6
:100A5B008B158A168917751900751A00751801AF51
:100A6B00187E00C3EF9405EE648094805021AB1583
:100A7B00AA16A917AF188F8275830012013DFF7E4E
:100A8B0000EF251AF51AEE3519F519051880D0AFB8
:100A9B001AEFF4FF7E008E198F1AAB15AA16A91741
:100AAB00AF188F8275830012013DFF7E00EFB51AE0
:100ABB0006EEB51902D322C3227540007BFF7A0FD5
:100ACB007973C003C002C0017B007A007941A80191
:100ADB00AC02AD03D001D002D0037E007F03120025
:100AEB00FE120CAE7F0E120D55E56012020E0B0BB3
:100AFB00050B10280B069700000B13120E458008F0
:100B0B00120B90800312096530B5DE90006BE0FF8D
:100B1B00EF60D6AF607E0012044F90006BE4F08064
:100B2B00C822C0E0C083C082C0D075D000C006C050
:100B3B0007758CFF758A9C053BE53B7002053A9067
:100B4B00006CE0FF7E00D3E53B9FE53A9E5004D25C
:100B5B00A08002C2A0D3E53B94C8E53A94004018AC
:100B6B001539E539700CC2A9C28C753A00753B007A
:100B7B008006753A00753B01D007D006D0D0D082E5
:100B8B00D083D0E03220B61620B7137548007549D4
:100B9B0006D203C202C201C200C205C2042230B691
:100BAB001220B70F754800754905C203C202C20176
:100BBB00D2002220B61230B70F754800754905C216
:100BCB0003C202D201C20022754800754906C20356
:100BDB00D202C201C200228F088D098B0A750D0843
:100BEB00750E04120EB4E50925E0FFE50825E02596
:100BFB00E0FEEE4FFFE50A4FFFEF420DE50B25E060
:100C0B00FFEF450CFFEF420E7F38120006AF0D12BF
:100C1B000006AF0E1200067F0112000622C2D5E8B5
:100C2B0030E70FB2D5E4C39BFBE49AFAE499F9E4FD
:100C3B0098F8EC30E717B2D5120C5E12029DE4C3A4
:100C4B009BFBE49AFAE499F9E498F8800312029D6D
:100C5B0030D50DE4C39FFFE49EFEE49DFDE49CFCB8
:100C6B00228E308F31E5311531AE3070021530FFE9
:100C7B00EF4E602E753202AF327E00D3EF9400EE52
:100C8B006480948040DF75332BAF337E00D3EF94B9
:100C9B0000EE648094804004153380ED153280D7CC
:100CAB0080C322C2AF120EFC120E06120E6C120E75
:100CBB0027750B01750C007B007D007F01120BE289
:100CCB00120E897BFF7A0F79677525007D00120E56
:100CDB00AB7BFF7A0F796D7525007D07120EABD2BA
:100CEB00AF228B1B8A1C891D8C1E8D1FE51F151FA8
:100CFB00AE1E7002151EFFEF4E601AAB1BAA1CA98D
:100D0B001D120124FF120E977401251DF51DE435EC
:100D1B001CF51C80D722300304120EBD22300204B6
:100D2B00120EE122200115200012300504120EEAEA
:100D3B0022300404120EF322120EC62230010412CA
:100D4B000ECF22300003120ED8228F617539057534
:100D5B003A00753B0190006CE561F0C2A0C28D7545
:100D6B008CFF758A9CD2A9D28CE53B453A70FA75FB
:100D7B008C00758A00C28DD2A0228B4A8A4B894C7B
:100D8B00AB4AAA4BA94C120124FFEF601AAB4AAA3B
:100D9B004BA94C120124FF120E977401254CF54CF4
:100DAB00E4354BF54B80D9228E448F45E5451545EF
:100DBB00AE4470021544FFEF4E6018754602AF4605
:100DCB007E00D3EF9400EE6480948040DF15468064
:100DDB00ED80D922753400753500858C37858A36C0
:100DEB00AF367E008E348F35AF377E00EF7F00FE3F
:100DFB00EF4235EE4234AE34AF352253890F43897F
:100E0B0020C29FD29ED29C438780758BF3858B8D9E
:100E1B00C2AB43B710D2BCD2ACD28E22C2CDC2CCA5
:100E2B00C2C8C2C975CDFC75CC1875CBFC75CA1878
:100E3B0053B7DFD2BDD2ADD2CA221207A3501012C4
:100E4B000558500B90006BE0FFEF60F32280F0220F
:100E5B00C290C291C292C293D294D295D296D2979B
:100E6B0022438901758C00758A0043B702C2B922EF
:100E7B00755B003098FD85995BC298AF5B22C2030E
:100E8B00D202754800754906756000228F5A855A43
:100E9B00993099FDC299228B0F8A1089118D1222DC
:100EAB008B218A2289238D2422C290C291C292C2A5
:100EBB009322D294C295D296C29722C294D295C253
:100ECB0096D29722D294C295C296D29722C294D22E
:100EDB0095D296C29722D294D295D296D29722D2FD
:100EEB0094C295D296D29722D294D295D296C2978B
:100EFB0022120009120E5B22758DFF758B9C324DF1
:100F0B006F64653A0041766F69640044697374617C
:100F1B006E63653A00636D00547261636B696E6753
:100F2B000052656D6F7465004572726F72003E3EC4
:100F3B003E3E3E206C6566743A003E3E3E3E3E2091
:100F4B0043757272656E743A003E3E3E3E3E2044DF
:100F5B00697374616E63653A000000004D6F6465E0
:100F6B003A00456D707479000000004D6F64653A6E
:0F0F7B0000456D70747900636D0D0A0000000071
:00000001FF
