:100000000208F70200072232000000020BC50000C0
:0100100000EF
:03001300020D9D3E
:03001B00020FC50C
:03002300020B5E6F
:10002B0002075BE709F608DFFA8046E709F208DF0B
:10003B00FA803E88828C83E709F0A3DFFA8032E3F3
:10004B0009F608DFFA8078E309F208DFFA80708896
:10005B00828C83E309F0A3DFFA806489828A83E0D0
:10006B00A3F608DFFA805889828A83E0A3F208DFBF
:10007B00FA804C80D280FA80C680D4806980F2806E
:10008B0033801080A680EA809A80A880DA80E28094
:10009B00CA803389828A83ECFAE493A3C8C582C8E9
:1000AB00CCC583CCF0A3C8C582C8CCC583CCDFE953
:1000BB00DEE7800D89828A83E493A3F608DFF9ECEF
:1000CB00FAA9F0EDFB2289828A83ECFAE0A3C8C57A
:1000DB0082C8CCC583CCF0A3C8C582C8CCC583CCA1
:1000EB00DFEADEE880DB89828A83E493A3F208DF10
:1000FB00F980CC88F0EF60010E4E60C388F0ED24E0
:10010B0002B4040050B9F582EB2402B4040050AFE2
:10011B00232345822390007E73BB010689828A8349
:10012B00E0225002E722BBFE02E32289828A83E4AB
:10013B009322BB010CE58229F582E5833AF583E036
:10014B00225006E92582F8E622BBFE06E92582F855
:10015B00E222E58229F582E5833AF583E49322BC1A
:10016B00000BBE0029EF8DF084FFADF022E4CCF83C
:10017B0075F008EF2FFFEE33FEEC33FCEE9DEC98A1
:10018B004005FCEE9DFE0FD5F0E9E4CEFD22EDF827
:10019B00F5F0EE8420D21CFEADF075F008EF2FFFCA
:1001AB00ED33FD4007985006D5F0F222C398FD0FB2
:1001BB00D5F0EA22A3F8E0C5F025F0F0E582158230
:1001CB0070021583E0C838F0E822E88FF0A4CC8BDE
:1001DB00F0A42CFCE98EF0A42CFC8AF0EDA42CFCF2
:1001EB00EA8EF0A4CDA8F08BF0A42DCC3825F0FD31
:1001FB00E98FF0A42CCD35F0FCEB8EF0A4FEA9F02A
:10020B00EB8FF0A4CFC5F02ECD39FEE43CFCEAA475
:10021B002DCE35F0FDE43CFC22C3E49FFFE49EFEB3
:10022B00E49DFDE49CFC2275F008758200EF2FFF26
:10023B00EE33FECD33CDCC33CCC58233C5829BEDB3
:10024B009AEC99E58298400CF582EE9BFEED9AFDB7
:10025B00EC99FC0FD5F0D6E4CEFBE4CDFAE4CCF967
:10026B00A88222B800C1B90059BA002DEC8BF084DA
:10027B00CFCECDFCE5F0CBF97818EF2FFFEE33FEA8
:10028B00ED33FDEC33FCEB33FB10D703994004EB60
:10029B0099FB0FD8E5E4F9FA227818EF2FFFEE332C
:1002AB00FEED33FDEC33FCC933C910D7059BE99A3E
:1002BB004007EC9BFCE99AF90FD8E0E4C9FAE4CCCF
:1002CB00FB2275F010EF2FFFEE33FEED33FDCC3339
:1002DB00CCC833C810D7079BEC9AE899400AED9B22
:1002EB00FDEC9AFCE899F80FD5F0DAE4CDFBE4CC01
:1002FB00FAE4C8F922900069EEF0A3EFF07F0B123D
:10030B000CD37F01120F9A7BFF7A10791CE49000BB
:10031B006FF0FD120E0BC203D202C201C200C20A61
:10032B00C209900069E0FEA3E0FFEE60030204182F
:10033B00EF24FB607D24DD70030203DD249160520A
:10034B00249760030204187BFF7A107922E4900053
:10035B006FF07D07120E0B7BFF7A10792890006FE0
:10036B007401F0E4FD120E0B7BFF7A1079329000D2
:10037B006F7401F07D0E120E0B90008C7497F09041
:10038B00007AE4F0A37406F0900080E4F0A374FF0D
:10039B0080777BFF7A107935E490006FF07D071240
:1003AB000E0B90008C7405F090007AE4F0A37406A9
:1003BB0080577BFF7A10793EE490006FF07D071237
:1003CB000E0B90008C7428F0E4900064F0A3F0D234
:1003DB00AC227BFF7A107922E490006FF07D07123C
:1003EB000E0B7BFF7A10792890006F7401F0E4FDFF
:1003FB00120E0B7BFF7A10793290006F7401F07D37
:10040B000E120E0B90008C7497F0C2AC227F01126F
:10041B000F9A7BFF7A107945E490006FF07D0712FD
:10042B000E0B22E4900069F0786A7C007D017BFF63
:10043B007A00790EFE7F031200FE200403020529C9
:10044B00C204900080E0FEA3E0FFE4FCFD7BAAFA6F
:10045B00F9F81201D5E47B107A27F9F8120D1C90EC
:10046B000080EEF0A3EFF0C374199FE49E500FD2FF
:10047B0003C202C201C200E4900069F08029C203EA
:10048B00C3900081E0940F900080E0940050102006
:10049B00A20DC202C201C2007F2C7E01120E91D2AC
:1004AB00029000697401F0900080E0FAA3E0FB7CFD
:1004BB00007D64FFAE0212016A7C007D0A12016AA4
:1004CB00900083EDF07C007D0AAF03AE0212016A4F
:1004DB007C007D0A12016AA3EDF0900080E0FEA380
:1004EB00E0FF7C007D0A12016AAF05900085EFF0FA
:1004FB00900083E0243090006AF0900084E0243078
:10050B0090006BF0ED2430A3F07B017A00796A90B8
:10051B0000777401F0A37403F07D0A120E6730A408
:10052B000320A31A20A20FC203C202C201C2007F82
:10053B008A7E02120E91D2029000697401F0900033
:10054B0069E024FF22786E7C007D017BFF7A0079C5
:10055B00087E007F031200FEE4900071F0A3F0D23E
:10056B00B27F0AFE120F1DC2B29000827402F0C25B
:10057B000520B308900082E070F7D20590008274DA
:10058B0002F0C205E4F58CF58AD28C30B30C9000E6
:10059B0082E070F7D205FE7FFF22C28C120F6E90A5
:1005AB000071EEF0A3EFF0900071E0FEA3E0FFE42A
:1005BB00FCFD7BAAFAF9F81201D5E47B107A27F936
:1005CB00F8120D1C900071EEF0A3EFF0900071E0AB
:1005DB00FAA3E0FB7C007D64FFAE0212016A7C0093
:1005EB007D0A12016A900083EDF07C007D0AAF0357
:1005FB00AE0212016A7C007D0A12016AA3EDF09033
:10060B000071E0FEA3E0FF7C007D0A12016AAF05DA
:10061B00900085EFF0900083E0243090006EF09016
:10062B000084E0243090006FF0ED2430A3F07B01C8
:10063B007A00796E9000777401F0A37403F07D0A51
:10064B00120E67900071E0FEA3E0FF22E4900069B8
:10065B00F0C2AA90007AF0A37404F07F19120CD3A5
:10066B0012055090006AEEF0A3EFF07F587E021255
:10067B000E917F0B120CD37F587E02120E917F04CA
:10068B00120CD312055090006CEEF0A3EFF07F58D4
:10069B007E02120E917F0B120CD3C203C20290008A
:1006AB0086E0FF702D90006CE0FCA3E0FDC3900092
:1006BB006BE09D90006AE09C400CD201C200900060
:1006CB008674F0F08023C201D200900086740FF084
:1006DB0080177E00EF64F07006D201C200800AEF33
:1006EB00640F4E7004C201D2007F2C7E01120E915A
:1006FB00D2027F0B120CD3120550900069EFF03031
:10070B00A40320A313C203C202C201C2007F2C7E2A
:10071B0001120E91D2028020900069E0D3941974DB
:10072B008094804013D203C202C201C200E4900045
:10073B0086F0900069F080069000697401F09000DB
:10074B007AE4F0A37406F0D2AA900069E024FF22A9
:10075B00C0E0C0F0C083C082C0D075D000C000C064
:10076B0001C002C003C004C005C006C007C2CF90C1
:10077B00007DE004F0700690007CE004F0C3900074
:10078B007DE094E890007CE094034013E4F0A3F048
:10079B00900082E0600414F08005300602C206204F
:1007AB00B51D90008BE0701790008AE004F0E0D349
:1007BB00941E748094804007E4F090008B04F090BA
:1007CB000066E07002A3E06017900067E024FFF082
:1007DB00900066E034FFF0E07002A3E07002D207F5
:1007EB00900079E0FFC390007BE09F90007AE0944B
:1007FB00005014120E39900079E0C3940AE494006F
:10080B004005E4F0120FFB900079E004F0D007D024
:10081B0006D005D004D003D002D001D000D0D0D068
:10082B0082D083D0F0D0E03241008B0041008A00AF
:10083B0042007C000042007E000042007A00004132
:10084B00007900C108C107606400000000000000CF
:10085B00000000000000000000000000000000008D
:10086B00000000000000000000000000000000007D
:10087B00000000000000000000000000000000006D
:10088B00000000000000000000000000000000005D
:10089B00000000000000000000000000000000004D
:1008AB0000000000000000000000000000000042FB
:1008BB00006400004200660000C105C104C106418E
:1008CB000082004300830000004200800000C1034F
:1008DB00C182C101C10041008C004100870B420065
:1008EB0088000041008600C10AC10900787FE4F648
:1008FB00D8FD75812102093E020AEDE493A3F8E4C9
:10090B0093A34003F68001F208DFF48029E493A35C
:10091B00F85407240CC8C333C4540F4420C8834075
:10092B0004F456800146F6DFE4800B010204081044
:10093B00204080900833E47E019360BCA3FF543FBA
:10094B0030E509541FFEE493A360010ECF54C0257C
:10095B00E060A840B8E493A3FAE493A3F8E493A36C
:10096B00C8C582C8CAC583CAF0A3C8C582C8CAC5D0
:10097B0083CADFE9DEE780BE90000312013DFFC3AF
:10098B00740A9F90007BF0E4940090007AF0900042
:10099B000212013D24F1601924BA603624AB6020A9
:1009AB0024BA704090007AE4F0A37406F0D203806E
:1009BB000B90007AE4F0A37406F0C203C2028031FC
:1009CB0090007AE4F0A37405F0C203C202D201C214
:1009DB00002290007AE4F0A37405F0C203C202C2B5
:1009EB0001D2002290007AE4F0A37406F0C203D285
:1009FB0002C201C20022300775900064E07004A3AC
:100A0B00E064067067900000E0645A705F7B017AC7
:100A1B00007900120A7A504D900001E024FB6033FC
:100A2B0024DD60382491602724977039E490008C82
:100A3B00F07BFF7A10795990006FF0FD120E0B7B53
:100A4B00FF7A10795FE490006FF07D07120E0B7F39
:100A5B002880027F977E0012030080097B017A00B9
:100A6B007900120983E4900064F0A3F0C20722908E
:100A7B000069EBF0A3EAF0A3E9F0E4A3F0A3F07FA5
:100A8B0001EFC39405748094805024900069E0FBBF
:100A9B00A3E0FAA3E0F98F8275830012013DFD906C
:100AAB00006DE02DF090006CE03400F00F80D290E0
:100ABB00006CA3E0F4FD90006CE4F0A3EDF090006B
:100ACB0069E0FBA3E0FAA3E0F98F827583001201C2
:100ADB003DFF90006CE0B40007A3E0B50702D32202
:100AEB00C322E4900068F0120C837F0B120CD37FAF
:100AFB00647E00120E9190008CE0649770182006B3
:100B0B0003120EBA12042E502512065750209000D5
:100B1B008BE060F5801890008CE064057005120C7A
:100B2B0025800B90008CE064287003120A0130B50D
:100B3B00C590008BE060BFE490008AF0C2AF9000DC
:100B4B008CE0FF7E00120300C2CFD2AFE490008B8B
:100B5B00F080A3C0E0C083C082C0D075D000C004B9
:100B6B00C007E4FF309846120FA8D20820073E902A
:100B7B000064E0FCA3E02400F58274003CF583EFF5
:100B8B00F0900065E004F07006900064E004F0C3A0
:100B9B00900065E09464900064E094004006C20805
:100BAB00E4F0A3F0900066E4F0A37428F0D007D033
:100BBB0004D0D0D082D083D0E032C0E0C083C082DA
:100BCB00C0D075D000C004C005C007C28D758CFFA6
:100BDB00758A9C900089E004F07006900088E00410
:100BEB00F0900087E0FF900088E0FCA3E0FDD39F2E
:100BFB00EC94005004D2A08002C2A0C3ED94C8ECC8
:100C0B0094004007900088E4F0A3F0D007D005D003
:100C1B0004D0D0D082D083D0E03220B61920B716C2
:100C2B0090007AE4F0A37406F0D203C202C201C2B0
:100C3B0000C20AC2092230B61520B71290007AE41E
:100C4B00F0A37405F0C203C202C201D2002220B687
:100C5B001530B71290007AE4F0A37405F0C203C20A
:100C6B0002D201C2002290007AE4F0A37406F0C213
:100C7B0003D202C201C20022C2AF1210169010574B
:100C8B00E493FE740193FF120DD8120F8C120EE237
:100C9B0090006C7401F0E4A3F0FBFD7F01120D607A
:100CAB00120FB2120F377BFF7A10794BE490006F63
:100CBB00F0FD120E0B7BFF7A107951E490006FF070
:100CCB007D07120E0BD2AF22E4900088F0A3F090B8
:100CDB000087EFF090006EE58CF0A3E58AF0A2A9F7
:100CEB00E433A3F0C28D758CFF758A9CD2A9D28C8C
:100CFB007F507E00120E91C28CE4F58CF58AC28D6A
:100D0B0090006EE0F58CA3E0F58AA3E024FF92A996
:100D1B0022C2D5E830E70FB2D5E4C39BFBE49AFAC5
:100D2B00E499F9E498F8EC30E717B2D5120D5212AA
:100D3B00026EE4C39BFBE49AFAE499F9E498F88019
:100D4B000312026E30D50DE4C39FFFE49EFEE49DBB
:100D5B00FDE49CFC22A9077E087C04120FCEAF0594
:100D6B00EF25E0FFAD01ED25E025E04F4B4EFE906A
:100D7B00006DE0FF90006CE025E0FDEF4D4CFC7F3B
:100D8B0038120F9AAF06120F9AFF120F9A7F0102B9
:100D9B000F9AC0E0C0F0C083C082C0D075D000C035
:100DAB0000C001C002C003C004C005C006C00712CA
:100DBB000F5CD007D006D005D004D003D002D001F1
:100DCB00D000D0D0D082D083D0F0D0E03253890F76
:100DDB00438920C29FD29ED29C438780AB07AA0631
:100DEB00E4F9F87F247EF4FDFC120D1C1202248F13
:100DFB008B858B8DC2AB43B710D2BCD2ACD28E22BB
:100E0B0090006BEBF0A3EAF0A3E9F0AF0590006F55
:100E1B00E0FD120F4A90006BE0FBA3E0FAA3E0F9B0
:100E2B00120124600890006B120F0080E82230033F
:100E3B0003020FD7300203020FFB20011220000F19
:100E4B00300A0302100430090302100D020FE030C8
:100E5B000103020FE9300003120FF222900073EB33
:100E6B00F0A3EAF0A3E9F0AF05900077E0FD120FD5
:100E7B004A900078E0FF14F0EF600A900073E0FBFB
:100E8B00120F0080EC22EF1FAA0670011E4A601E93
:100E9B007D02EDD394007480948040EA7C2BECD3DC
:100EAB0094007480948040031C80F31D80E4229096
:100EBB0000827403F0C205D2B27F057E00120F1DB3
:100ECB00C2B220B308900082E070F7D205E4F58C33
:100EDB00F58AD28CD20622C2CDC2CCC2C875CDFC4B
:100EEB0075CC1875CBFC75CA18C2C943B720D2BDD7
:100EFB00D2ADD2CA22A3E475F0011201BFA9F0FA58
:100F0B00120124FF120F7DD2A6C2A58F80D2A7C2D9
:100F1B00A722EF1FAA0670011E4A600F7D02EDD3B8
:100F2B0094007480948040EA1D80F322C203D202A5
:100F3B0090007AE4F0A37406F0E490008CF022EDBC
:100F4B007004AE078004EF2440FEEE4480FF020FD6
:100F5B009AC28C120F6E900080EEF0A3EFF0C206D7
:100F6B00D20422A98CAF8AAD07AF01E9FCEDAE0428
:100F7B00FF227580FFC2A6D2A5D2A72087FDC2A7EC
:100F8B0022438901E4F58CF58A53B7FDD2B92212BD
:100F9B000F7DC2A6C2A58F80D2A7C2A722E4FF30C5
:100FAB0098FDAF99C29822D28A53B7FBD2BAD2AA74
:100FBB0022D294D295D296D29722C28F758DFF757D
:100FCB008B9C32C290C291C292C29322D294C29590
:100FDB00D296C29722C294D295C296D29722D2941D
:100FEB00C295C296D29722C294D295D296C297221C
:100FFB00D294D295D296D29722D294C295D296D22F
:10100B009722D294D295D296C29722120006020F43
:10101B00BC4D6F64653A0041766F69640044697337
:10102B0074616E63653A00636D00547261636B6942
:10103B006E670052656D6F7465004572726F72005A
:10104B004D6F64653A00456D7074790012C04D6F39
:0A105B0064653A00456D7074790079
:00000001FF
